:03000000020006F5
:03005F0002000399
:030003000200C434
:1000620010980280FB85998222E582900600F0E0DA
:10007200F5993099FDD29922AF83E582900601F07D
:10008200EFA3F010990280FB900601E0FEA3E0FFCF
:100092008E998E828F832210980280FBAE997F0008
:1000A2008E828F83227CC07DD47E017F00001CBCA7
:1000B200FF091DBDFF051EBEFF011FEC4D4E4F7017
:1000C200EC2275A15575A1AA53B3E043B30675B2EC
:1000D200D875A1FF7CC07DD47E017F00001CBCFFCF
:1000E200091DBDFF051EBEFF011FEC4D4E4F70ECFA
:1000F20043C60143C40843C50C43CE10C29FD29EDF
:10010200C29DD29C438780740F55894420F5894350
:10011200C9A0758DE6D28ED299E4C0E074C2C0E067
:100122007401C0E0E4C0E07431C0E0740CC0E0745B
:1001320080C0E07418C0E0740CC0E07480C0E012AB
:1001420001B6E58124F6F5817CC07DD47E017F0075
:10015200001CBCFF091DBDFF051EBEFF011FEC4DAB
:060162004E4F70EC80B36B
:100C180054657374206275696C643D25732C206279
:100C28006175643D256C640A0031313A34313A30DB
:020C3800350085
:06003500E478FFF6D8FD9F
:100013007900E94400601B7A00900C45783C75A098
:1000230006E493F2A308B8000205A0D9F4DAF27546
:02003300A0FF2C
:10003B007800E84400600A790075A006E4F309D85B
:10004B00FC783CE84400600C7901900600E4F0A3D6
:04005B00D8FCD9FAFA
:10016800C0128581127E008E8312007AD01222AFCF
:10017800F0AE83E582900604F0EEA3F0EFA3F090D2
:100188000604E0FDA3E0FEA3E0FF900603E0FC9078
:100198000618E4F0A3F0A3F090061BEDF0EEA3F030
:1001A800EFA3F090061EECF09001680202BFC012A7
:1001B800E581F51224FBFF900618E4F0A3F0A3F004
:1001C800E51224FBF890061BE6F008E6A3F008E623
:1001D800A3F090061EEFF09001681202BFD0122221
:1001E800E582900614F0E0FF90060AE0C0E0A3E084
:1001F800C0E0A3E0C0E0120203800D900608E0C052
:10020800E0A3E0C0E08F8222158115811581900658
:1002180012E02401F0A3E03400F022E582900615F4
:10022800F0E02430FF24C6500D74072FFF90060716
:10023800E060034307208F820201E8E582900616FA
:10024800F0E0FFC4540FF582C007120223D0075311
:10025800070F8F82020223E582900617F090060DA1
:10026800E0FCA3E0FDA3E0FEA3E0FF900611E0FBA5
:10027800751320900617E0F98B00E828F8EF23544F
:100288000148FBEC2CFCED33FDEE33FEEF33FFC3EE
:10029800EB994007EBC399FB430401E51314FA8A71
:1002A8001370D590060DECF0EDA3F0EEA3F0EFA3DC
:1002B800F0900611EBF022AF83E58290061FF0EF75
:1002C800A3F090061FE0FEA3E0FF900608EEF0EF13
:1002D800A3F0900618E0FDA3E0FEA3E0FF90060A55
:1002E800EDF0EEA3F0EFA3F0900612E4F0A3F09087
:1002F800061BE0FDA3E0FEA3E0FF8D828E838FF056
:10030800120BF8FC90061B74012DF0E43EA3F0EFED
:10031800A3F0EC7003020BB4BC25028003020BAC03
:10032800900621E4F0900622F0900623F09006242F
:10033800F0900625F0900626F0900627F090062803
:10034800F090062AF090062BF0A3F090062D14F0FA
:10035800A3F090061BE0FDA3E0FEA3E0FF8D828ED4
:10036800838FF0120BF8FBA3AD82AE8390061BEDD2
:10037800F0EEA3F0EFA3F0900631EBF0BB25088B6D
:10038800821201E80202F7BB30005003020458EB66
:1003980024C6500302045890062DE0F508A3E0F5A2
:1003A8000974FFB50863B50960C005C006C00790A9
:1003B800062BE0FAA3E0FF90063AEAF0EFA3F090EC
:1003C800000AC005C003120BD8AE82AF83D003D099
:1003D800058B027D00EA2EFEED3FFFEE24D0FEEFF6
:1003E80034FFFF90062BEEF0EFA3F0D007D006D035
:1003F8000590062BE0F5F0A3E045F06003020365E5
:100408009006227401F0020365C005C006C007907B
:10041800063AE508F0E509A3F090000AC006C00511
:10042800C003120BD8AA82AF83D003D005D0067EB2
:1004380000EB2AFAEE3FFFEA24D0FAEF34FFFF90F0
:10044800062DEAF0EFA3F0D007D006D00502036529
:10045800900631E0FBBB2E2FC005C006C0079006F2
:100468002DE0FAA3E0FFBAFF05BFFF028009D0071D
:10047800D006D005020365D007D006D00590062D1A
:10048800E4F0A3F0020365BB61004014EB2485404F
:100498000F90063174DF5BF09006077401F0800559
:1004A800900607E4F0900631E0FBBB20028075BBA4
:1004B8002B028067BB2D028059BB4202806FBB4371
:1004C80002807CBB440302074FBB4603020775BB8F
:1004D8004803020365BB490302074FBB4A030203F3
:1004E80065BB4C028050BB4F0302075DBB50030243
:1004F80006BDBB53028077BB5403020365BB55039B
:10050800020765BB580302076DBB5A030203650265
:10051800077D9006217401F002036590062374019B
:10052800F00203659006247401F002036590062624
:100538007401F00203659006277401F002036590C8
:100548000626E0600E90061EE014F9F0900631E7EA
:10055800F0800F90061EE024FEFFF08F0190063118
:10056800E7F0900631E0F5821201E802078C900668
:100578001EE024FDFFF08F0187050987060987071C
:10058800191990060DEDF0EEA3F0EFA3F08D828E11
:10059800838FF0120BC085820885830990062DE0B1
:1005A800FAA3E0FDBAFF0DBDFF0A90062DE508F09D
:1005B800E509A3F0900621E0704B90062BE0FAA322
:1005C800E0FDC3E5089AE5099D503A90062BEAC379
:1005D8009508F0ED9509A3F090062BE0FAA3E0FD4D
:1005E8008A068D071ABAFF011DEE4F60107582202A
:1005F800C005C0021201E8D002D00580E390062BA6
:10060800EAF0EDA3F090062DE0F50BA3E0F50C90D1
:10061800060DE0FAA3E0FDA3E0FF8A828D838FF048
:10062800120BF8F50A603CC3E4950B7480850CF056
:1006380063F08095F0502C150B74FFB50B02150C68
:10064800850A821201E890060DE0FAA3E0FDA3E016
:10065800FF0ABA00010D90060DEAF0EDA3F0EFA332
:10066800F080AC900621E0700302078C90062BE026
:10067800FEA3E0FFC3E5089EE5099F400302078C3F
:1006880090062BEEC39508F0EF9509A3F090062B82
:10069800E0FEA3E0FF8E028F051EBEFF011FEA4D9C
:1006A8007003020784758220C007C0061201E8D0D3
:1006B80006D00780E090061EE024FDFDF08D01873E
:1006C8000D09870E09870F191990060DE50DF0E53C
:1006D8000EA3F0E50FA3F090060FE0FDBD800040EB
:1006E800089006317443F08020BD600040089006F1
:1006F800317450F08013BD400040089006317449B1
:10070800F080069006317458F0900631E0FDF582CD
:10071800C0051201E875823A1201E87582301201AB
:10072800E87582781201E8D005BD4902800EBD50F7
:1007380002800990060EE0F58212024390060DE051
:10074800F582120243803D9006257401F090062A36
:10075800740AF0802F90062A7408F0802790062AE1
:10076800740AF0801F90062A7410F08017900628EB
:100778007401F0800F8B821201E8800890062BEE3E
:10078800F0EFA3F0900628E0607190061EE024FCCC
:10079800FFF08F018703098705098706098707196D
:1007A800191990060DEBF0EDA3F0EEA3F0EFA3F00E
:1007B80090060D743AF0740CA3F07480A3F09006C0
:1007C8000DE0F50DA3E0F50EA3E0F50F7401250D7E
:1007D800FAE4350EFBAF0F90060DEAF0EBA3F0EF4D
:1007E800A3F0850D82850E83850FF0120BF8FF703C
:1007F800030202F78F821201E880C390062AE07094
:10080800030202F7900626E0604790061EE014F9FE
:10081800F087077E007D007B0090060DEFF0EEA3C9
:10082800F0EDA3F0EBA3F0900625E060030208CFFB
:1008380090060DE0FBA3E0A3E0A3E07D007E007F2F
:100848000090060DEBF0EDA3F0EEA3F0EFA3F0801F
:1008580076900627E0602890061EE024FCFFF08FC3
:100868000187030987050987060987071919199058
:10087800060DEBF0EDA3F0EEA3F0EFA3F0804890A7
:10088800061EE024FEFFF08F01870609870719EF8F
:100898003395E0FDFB90060DEEF0EFA3F0EDA3F02D
:1008A800EBA3F0900625E0701E90060DE0FBA3E098
:1008B800FDA3E0A3E07E007F0090060DEBF0EDA322
:1008C800F0EEA3F0EFA3F0900625E0604190060D4E
:1008D800E0FBA3E0FDA3E0FEA3E0FF30E72B9006DA
:1008E8000DE0FBA3E0FDA3E0FEA3E0FFC3E49BFB58
:1008F800E49DFDE49EFEE49FFF90060DEBF0EDA362
:10090800F0EEA3F0EFA3F08005900625E4F0900642
:10091800297401F090062AE0F50B75103775110659
:10092800E4F508F509900611E4F0850B8212025FE0
:10093800900629E07026900611E0C4F50D85108216
:10094800851183E0FFE50D4207851082851183EF4D
:10095800F0151074FFB510021511800C900611E007
:10096800FF851082851183F00508E4B508020509A2
:10097800900629E0B40100E433F090060DE0FAA3F4
:10098800E0FBA3E0FEA3E0FFEA4B4E4F7097900612
:1009980038E510F0E511A3F090062FE508F0E50919
:1009A800A3F090062BE0F5F0A3E045F0700990065F
:1009B8002B7401F0E4A3F0900622E0FFE07047906A
:1009C8000621E0704185081085091190062BE0FA90
:1009D800A3E0FBC007AF100F8F067F00C3EE9AEFAE
:1009E8009BD0075019758220C007C003C0021201AE
:1009F800E8D002D003D0071ABAFF011B80D59006B1
:100A08002BEAF0EBA3F0900625E0602075822DC05C
:100A1800071201E8D00790062BE024FFFDA3E0347D
:100A2800FFFE90062BEDF0EEA3F0805690062FE027
:100A3800F5F0A3E045F0604A900623E06020758257
:100A48002BC0071201E8D00790062BE024FFFDA376
:100A5800E034FFFE90062BEDF0EEA3F08024900624
:100A680024E0601E758220C0071201E8D0079006B6
:100A78002BE024FFFDA3E034FFFE90062BEDF0EE03
:100A8800A3F0900621E0704890062FE0F510A3E04F
:100A9800F51190062BE0FAA3E0FBC0078A068B0746
:100AA8001ABAFF011BC3E5109EE5119FD0075053EA
:100AB800EF60067D307E0080047D207E008D82C040
:100AC80007C003C0021201E8D002D003D00780CAD1
:100AD80090062BE0FEA3E0FF90062FE0F510A3E0C0
:100AE800F511C3E5109EE5119F500F90062BEEC33C
:100AF8009510F0EF9511A3F0801190062BE4F0A368
:100B0800F0800890062BEAF0EBA3F0900638E0FEA0
:100B1800A3E0FF90062FE0F510A3E0F511AA10ADB1
:100B280011151074FFB510021511EA4D60459006B5
:100B380029E0B40100E433F0900629E070140EBEF9
:100B480000010F8E828F83E0C4540FFD900611F0D0
:100B5800800E8E828F83E0FD53050F900611EDF015
:100B6800900611E0F582C007C006120223D006D015
:100B78000780AA900621E070030202F790062BE096
:100B8800FEA3E0FF8E038F051EBEFF011FEB4D7015
:100B9800030202F7758220C007C0061201E8D006DA
:100BA800D00780E08C821201E80202F7900612E07A
:080BB800FEA3E08E82F583220A
:0B0C3A003C4E4F20464C4F41543E0002
:100BC000AA82AB83120BF86003A380F8C3E5829A74
:100BD000F582E5839BF58322AA83AB828BF0900696
:100BE0003AE0A4F8A9F08AF0E0A429F98BF0A3E098
:080BF000A429F583888222226A
:0D000600758113120C14E5826003020003E3
:100BF80020F71430F6148883A88220F507E6A88326
:100C080075830022E280F7E49322E02275820022B5
:00000001FF
